:020000040800F2
:10000000E80500209D01000837160008D9130008F4
:1000100035160008A9020008B91C000800000000FD
:100020000000000000000000000000003B16000877
:10003000AB02000800000000391600083D16000859
:10004000B7010008B7010008B7010008B7010008B0
:10005000B7010008B7010008B7010008B7010008A0
:10006000B7010008B7010008B7010008B701000890
:10007000B7010008B7010008B7010008B701000880
:10008000B7010008B7010008B7010008B701000870
:10009000B7010008B7010008B7010008B701000860
:1000A000B7010008B7010008B7010008B701000850
:1000B000B7010008B7010008B7010008B701000840
:1000C000B7010008B7010008B7010008B701000830
:1000D000B7010008AD1C0008B7010008B70100080F
:1000E000C9020008B7010008B7010008B7010008FD
:1000F000B7010008B7010008B7010008B701000800
:10010000B7010008B7010008B7010008B7010008EF
:10011000B7010008B7010008B7010008B7010008DF
:10012000B7010008B7010008B7010008B7010008CF
:10013000B7010008B7010008B7010008B7010008BF
:10014000B7010008B7010008B7010008B7010008AF
:10015000B7010008B7010008B7010008B70100089F
:10016000B7010008B7010008B7010008B70100088F
:10017000B7010008B7010008B7010008000000003F
:10018000B7010008B7010008DFF80CD000F07AF8DA
:1001900000480047351D0008E80500200648804754
:1001A00006480047FEE7FEE7FEE7FEE7FEE7FEE75C
:1001B000FEE7FEE7FEE7FEE7D51600088901000826
:1001C0002DE9F05F0546002092469B46884606468C
:1001D000814640241BE0284641464746224600F01F
:1001E00041F853465A46C01A914110D31146184659
:1001F000224600F028F82D1A67EB01084F462246E8
:100200000120002100F01FF817EB00094E41201ECD
:10021000A4F10104DFDC484631462A464346BDE8E6
:10022000F09FD2B201E000F8012B491EFBD27047CB
:100230000022F6E710B513460A4604461946FFF7B2
:10024000F0FF204610BD202A04DB203A00FA02F11C
:10025000002070479140C2F1200320FA03F31943B4
:1002600090407047202A04DB203A21FA02F0002156
:10027000704721FA02F3D040C2F1200291400843B6
:1002800019467047064C074D06E0E06840F0010350
:1002900094E8070098471034AC42F6D3FFF778FF94
:1002A000A81D0008C81D0008FEE77047A0204106F1
:1002B00048634FF47A7000F02FB8A020410688639D
:1002C0004FF47A7000F028B84FF4805000F056B820
:1002D00072B6FEE782214807416381637047B4210B
:1002E0000807416381637047A02148064163816329
:1002F000704790F83510022903D080214165012014
:100300007047052180F835100068016821F001016F
:10031000016000207047000070B5044600F01CF931
:100320000546601C02D004480078044400F014F92B
:10033000401BA042FAD370BD040000200B49B0F569
:10034000805F07D191ED010AF7EE000A30EE200A36
:1003500081ED010A064A4868904206D1054A00200C
:1003600050639FED050A81ED010A704714000020DB
:10037000000096430000014000000000044910B551
:100380000A68024202D00860FFF7D8FF10BD0000E3
:10039000143C01402DE9F84F00224FF001080325DD
:1003A0004FF00F0E0B6808FA02F42340A3426ED1FF
:1003B0004E68012E05D0022E03D0112E01D0122E30
:1003C00012D186684FEA420C05FA0CF7BE43CF689B
:1003D00007FA0CF7374387604668A6430C79C4F3E5
:1003E0000014944034434460C668570005FA07FC83
:1003F0008C6826EA0C06BC403443C4604C68022C6E
:1004000001D0122C13D1D40800EB8404A346D4F8F5
:10041000209054074FEAD46A0EFA0AF629EA060930
:100420000E6906FA0AF646EA0906CBF82060066865
:100430000C7926EA0C0604F00304BC403443046043
:100440004C68E40065D5364C266846F48046266044
:10045000246822F0030604F480440094314C3444B0
:10046000A446D4F808489607370F0EFA07F6B443A7
:100470002D4EB04201D1002624E02C4EB04201D1D5
:1004800001261FE02A4EB04202D102261AE040E0C7
:10049000284EB04201D1032614E0274EB04201D1CC
:1004A00004260FE0254EB04201D105260AE0244E75
:1004B000B04201D1062605E0224EB04201D1072606
:1004C00000E00826BE402643CCF808681E4E34687B
:1004D0004F689C43FF0300D51C4334601A4C241D15
:1004E00026684F689E43BF0300D51E432660164E04
:1004F000083634684F689C43FF0200D51C433460C3
:10050000114E0C3634684F689C43BF0200D51C4323
:100510003460521C102AFFF445AFBDE8F88F00008C
:100520004438024000300140000002400004024014
:1005300000080240000C024000100240001402407B
:1005400000180240001C0240003C01400AB18161D9
:1005500070470904FBE7000001488068704700000D
:1005600004000020024881680278114481607047CD
:10057000040000200B4810B5016841F400710160CF
:10058000016841F480610160016841F4807101609B
:10059000032000F06FF8002000F006F800F024F8C7
:1005A000002010BD003C024070B50D4D04464FF4D4
:1005B0007A712878B1FBF0F00A490968B1FBF0F0D4
:1005C00000F002FB48B9102C07D200222146501E31
:1005D00000F030F800206C6070BD012070BD00009C
:1005E00004000020100000200A4808B5016841F40A
:1005F00080410160006800F4804000900548001FC1
:10060000016841F080510160006800F08050009066
:1006100008BD000044380240002809DB00F01F023A
:10062000012191404009800000F1E020C0F8001154
:1006300070470000F0B40E4B1B680C46C3F3022356
:10064000C3F10705042D00D90425191D072901D27E
:10065000002300E0DB1E012606FA05F1491E2140B9
:1006600099409E40761E16403143F0BC01F042BBDB
:100670000CED00E0064900F0070208684FF6FF03A2
:10068000184040EA0220034A104308607047000007
:100690000CED00E00000FA052DE9F0470E460500DC
:1006A00065D0DFF81481D8F80000F7B200F00F0031
:1006B000B04207D288F80070D8F8000000F00F00B0
:1006C000B04254D128683D4C810712D5400703D56C
:1006D000206840F4E05020602878000703D52068A7
:1006E00040F4604020602068A96820F0F0000843D2
:1006F00020602878C0072DD0304968680839012863
:1007000012D0022813D0032811D0096889070029C4
:100710002DDA216821F0030101432160FFF71CFF5E
:10072000814641F2883A0EE009688903EFE70968DB
:100730008901ECE7FFF710FFA0EB0901514502D951
:100740000320BDE8F0872068696800F00C00B0EB7A
:10075000810FEFD1D8F80010404601F00F01B142EF
:1007600007D90770006800F00F00B04201D00120E7
:10077000E7E72878400705D52068E96820F4E050CD
:10078000084320602878000706D52068296920F4EE
:10079000604040EAC100206000F038F82168084A53
:1007A000C1F30311515CC84006490860064800685F
:1007B000FFF7FAFE0020C4E7003C02400838024080
:1007C000901D000810000020080000200448054982
:1007D00000680968044AC1F38221515CC84070472F
:1007E0001000002008380240A01D000804480549F8
:1007F00000680968044AC1F34231515CC84070473F
:100800001000002008380240A01D0008154810B54F
:10081000006810F00C02144813D04110042A0FD0C5
:10082000082A0ED10F4C241F2268236802F03F02D1
:100830005B0207D52068C0F38810A0FB010106E029
:10084000084610BD2168C1F38811A1FB00010023F7
:10085000FFF7B6FC2168C1F30141491C4900B0FB18
:10086000F1F010BD083802400024F4002DE9F84FE3
:1008700004006ED02078DFF83C93C007A9F104058E
:100880004AD009F104000168C1F38101012908D0AF
:100890000068C0F3810002280AD1D9F800004002A4
:1008A00006D52868800337D560680028E1D033E09A
:1008B0006068B0F5803F10D0B0F5A02F286810D048
:1008C00020F480302860286820F480202860606848
:1008D000A8B1FFF741FE06460DE0286840F48030DD
:1008E000F4E740F480202860F7E700BFFFF734FE0C
:1008F000801B642873D828688003F7D50CE0FFF7C5
:100900002BFE064605E000BFFFF726FE801B64288D
:10091000F0D828688003F7D42078DFF89C8280071D
:100920004FF0000A3ED5A348001D016811F00C0FDE
:1009300008D00068C0F3810002280BD1D9F800006C
:10094000400207D42868800716D5E068012800D146
:1009500012E02BE1E068B8B10120C8F80000FFF711
:10096000FBFD064605E000BFFFF7F6FD801B0228F1
:10097000C0D828688007F7D52868216920F0F800DA
:1009800040EAC10028600DE0C8F800A0FFF7E4FDD0
:10099000064604E0FFF7E0FD801B02281FD8286808
:1009A0008007F7D42078000722D5824E83486169FA
:1009B000703671B101210160FFF7CEFD074604E0FA
:1009C000FFF7CAFDC01B022809D830688007F7D599
:1009D0000EE0C0F800A0FFF7BFFD074605E082E08B
:1009E000FFF7BAFDC01B02287DD830688007F7D416
:1009F0002078400768D5DFF8BCB100270BF13C0B2D
:100A0000DBF80000C0000BD4DBF8001041F080518F
:100A1000CBF80010DBF80000012700F080500090B8
:100A2000674E3068C00510D4306840F48070306084
:100A3000FFF792FD009005E0FFF78EFD0099401A48
:100A4000022850D83068C005F6D55A4EA0686C36DA
:100A500001280FD00528306810D020F00100306048
:100A6000306820F004003060A068B8B1FFF774FD72
:100A700000900FE0306840F00100F4E740F004001F
:100A80003060F7E7FFF768FD0099411A41F28830BE
:100A9000814266D830688007F4D50EE0FFF75CFD30
:100AA000009007E0FFF758FD0099411A41F28830A5
:100AB000814256D830688007F4D42FB1DBF800109B
:100AC00021F08051CBF80010A069C8B33949091D45
:100AD0000968C1F3810102294AD00228504607D093
:100AE000C8F8600000E03CE0FFF736FD04463BE05C
:100AF0004746C8F86000FFF72FFD064605E000BF37
:100B0000FFF72AFD801B02282BD828688001F7D424
:100B1000D4E907010843A16A2A4A490802EB0141C6
:100B2000626A41EA8211084394F82C1040EA01619C
:100B3000C9F8001001203866FFF70EFD044606E0F4
:100B400036E000BFFFF708FD001B022809D828681F
:100B50008001F7D52CE000BFFFF7FEFC001B022848
:100B600002D90320BDE8F88F28688001F4D41FE083
:100B70000128F7D0D9F80000E26900F48001914221
:100B800014D1226A00F03F0191420FD147F6C071A3
:100B9000626A0140914209D1A26A00F44031914257
:100BA00004D1E16A00F07060884201D00120D9E7E9
:100BB0000020D7E70438024000004742800E474239
:100BC000007000400000FFFF10B5401EB0F1807FB4
:100BD00001D3012010BD4FF0E02460610F216017A8
:100BE00001F088F80020A06107202061002010BDDE
:100BF00010B590F83C20012A22D0012280F83C2038
:100C0000CA688C6822F4407222434C6822F48062E5
:100C100022430C6822F4006222430C6922F48052C1
:100C200022434C6922F400522243C969002322F472
:100C300080420A4301684A6480F83C30002010BDBD
:100C4000022010BD70B590F83C20012A32D001245A
:100C500080F83C40022280F83D2003685A689D6875
:100C600022F070060A6832435A60134B02689A42B7
:100C700014D0B2F1804F11D0104B9A420ED0104BCD
:100C80009A420BD00F4B9A4208D00F4B9A4205D094
:100C90000E4B9A4202D00E4B9A4204D1496825F07D
:100CA00080031943916080F83D40002180F83C109A
:100CB000084670BD022070BD0000014000040040E5
:100CC00000080040000C00400004014000400140CA
:100CD0000018004010B5040003D094F83D0010B196
:100CE00007E0012010BD002084F83C00204600F001
:100CF0000DF8022084F83D00211D206800F0F8FC6A
:100D0000012084F83D00002010BD000008B50068F7
:100D10000949884201D1094804E0B0F1804F09D166
:100D20000648001F016841F001010160006800F001
:100D30000100009008BD000000000140443802405E
:100D400070B5044690F83C00012817D0012584F8BE
:100D50003C50022084F83D002068826822F077022F
:100D600022F47F4282600868502830D00DDC2028B1
:100D70004DD005DC98B310283BD148E0022070BD6F
:100D8000302844D0402834D139E0602828D0702859
:100D900006D0B0F5805F2CD0B0F5005F29D10AE015
:100DA000CB68D1E90121206800F013FD206881683B
:100DB00041F0770109E0CB68D1E90121206800F01A
:100DC00008FD2068816841F48041816011E0CA68B3
:100DD0004968206800F0D2FD5021206807E016E045
:100DE000CA684968206800F0DAFD6021206800F0D8
:100DF000FAFC84F83D50002084F83C0070BDCA68BD
:100E00004968206800F0BAFD40212068EFE72268B9
:100E100001461046EBE7000030B587B004461421C8
:100E20006846FFF705FA2468174D0021174802228B
:100E30000123AC4211D1046844F01004046000683E
:100E400000F0100005904FF420600090CDE90121E2
:100E5000CDE9031369460E4812E0B4F1804F11D179
:100E6000046844F001040460006800F0010005908B
:100E700003200090CDE90121CDE90313694605481F
:100E8000FFF788FA07B030BD00000140303802405B
:100E9000001002400000024070B5044690F83C008B
:100EA0000D4601280DD0012684F83C60022084F80C
:100EB0003D0042B1042A18D0082A2AD00C2A4DD16C
:100EC00039E0022070BD206800F096FC206881693E
:100ED00041F0080181612068816921F0040181618C
:100EE000206881692A69114311E0206800F0B4FC90
:100EF0002068816941F4006181612068816921F481
:100F000080618161206881692A6941EA02218161E9
:100F100024E0206800F0D6FC2068C16941F0080197
:100F2000C1612068C16921F00401C1612068C16903
:100F30002A69114311E0206800F0F8FC2068C169BB
:100F400041F40061C1612068C16921F48061C1611F
:100F50002068C1692A6941EA0221C16184F83D60C3
:100F6000002084F83C0070BD10B5040003D094F854
:100F70003D0010B107E0012010BD002084F83C00C6
:100F8000204600F00CF8022084F83D00211D206866
:100F900000F0AEFB012084F83D00002010BD70473A
:100FA00010B504460068012200F006FC0B492068D9
:100FB000884202D00A49884203D1416C41F4004181
:100FC00041642068816801F00701062903D00168A7
:100FD00041F001010160002010BD0000000001404F
:100FE00000040140704710F8391F407808437047EB
:100FF00070B5026804461068D168536910F00F0F8D
:1010000053D003F0010501F490762E435FD0C20760
:1010100005D0CA0503D5E26B42F00102E263420744
:1010200005D5DA0703D0E26B42F00202E2638207E1
:1010300005D5DA0703D0E26B42F00402E26302074F
:1010400007D501F020022A4303D0E26B42F00802E8
:10105000E263E26B002A34D0800604D5880602D50C
:10106000204600F0E0FC20684069E16BC0F380108E
:1010700001F008010143204624D000F0C6FC20689E
:10108000416949061AD5416921F040014161606B0F
:10109000A0B11B490165606BFFF72BF9002810D048
:1010A000606B016DBDE87040084783060FD58B0665
:1010B0000DD52046BDE8704000F0B5BC2046FFF7D6
:1010C00091FF70BDFFF78EFF0020E06370BD030647
:1010D00006D50B0604D52046BDE8704000F082BD61
:1010E0004006F3D54806F1D5D168204621F04001ED
:1010F000D160202184F8391000F06DF970BD000036
:10110000FB19000870B5040004D094F839000025DC
:1011100010B106E0012070BD84F83850204600F080
:1011200023F8242084F839002068C16821F4005194
:10113000C160204600F0C2FC2068016921F49041A2
:1011400001612068416921F02A0141612068C1687C
:1011500041F40051C160E563202084F8390084F82F
:101160003A00002070BD000010B586B0044614217E
:101170006846FFF75DF818492068884229D117486A
:101180000021026842F010020260006800F01000C6
:10119000059012481438026842F0010202600068AB
:1011A00000F0010005904FF4C06000900220CDE9EE
:1011B0000101032003900720049069460848FFF7C7
:1011C000E9F8002211462520FFF734FA2520FFF721
:1011D00023FA06B010BD0000001001404438024060
:1011E0000000024090F83A30202B22D1F9B1F2B140
:1011F00090F83830012B1CD081628285C285002195
:10120000C163222280F83A2080F838100168CA6849
:1012100042F48072CA6001684A6942F001024A6180
:101220000068C16841F02001C160002070470120C2
:10123000704702207047000070B5354E354D30784C
:1012400071782954401CC2B2A818327010F8010CF1
:10125000232855D14FF6FF7329462F4800F05EF83A
:101260002D48FFF7C0FE2128FAD000243EE02819BF
:1012700010F8011C202937D110F8020C472819D08A
:10128000542802D05A282FD124E0285D522801D1B9
:1012900000F0ADFB285D4C2801D100F0A2FB285DD9
:1012A000482801D100F095FB285D44281CD100F0AE
:1012B00088FB19E0285D4F2801D1FFF710F8285D61
:1012C000422801D1FFF706F8285D53280CD1FFF71B
:1012D0000BF809E0285D432801D100F0EFFC285D00
:1012E000502801D100F0F8FC641CA4B2307884428C
:1012F000BDD3002030704FF480710648FEF798FF90
:10130000BDE8704002490122491C0348FFF76ABF4B
:101310000000002028000020A80100202DE9F8434B
:10132000044690F839001F4616460D46202850D135
:10133000B5B1AEB194F8380001284AD0012084F844
:1013400038004FF00008C4F83C80212084F83900B0
:10135000FFF702F9A6848146E68484F8388026E007
:101360000120BDE8F883E08C401EE084A0684B4675
:10137000B0F5805F4FF000024FF0800120460097EB
:1013800003D000F060FCE8B90DE000F05CFCC8B9E7
:1013900028882168C0F308004860206908B16D1CE6
:1013A00005E0AD1C03E0216815F8010B4860E08CF6
:1013B0000028D8D14B46002240212046009700F05B
:1013C00042FC08B10320CCE7202084F8390000203B
:1013D000C7E70220C5E77047FEE7000070B586B09A
:1013E00014216846FEF724FF1F480024016841F0DD
:1013F00080010160016801F080010591016841F000
:1014000001010160016801F001010591016841F0ED
:10141000100101600068154E00F010004FF4806567
:101420000590002229463046FFF790F801200095EC
:10143000CDE90104694630460394FEF7ABFFA800EE
:1014400000900B4801900220029069463046FEF75A
:10145000A1FF002211462820FFF7ECF82820FFF713
:10146000DBF806B070BD00003038024000100240CA
:101470000000111010B596B000240F941094119430
:10148000129413941C2168461494FEF7D1FE202177
:1014900007A8FEF7CDFE2D482B49C0E9001441F600
:1014A0001F41C0E9024180210461C0E90541FFF705
:1014B00011FC08B1FEF70CFF4FF480500F900FA9FC
:1014C0002248FFF73DFC08B1FEF702FF1F48FFF777
:1014D0004BFD08B1FEF7FCFE139413A91B481494AE
:1014E000FFF7B0FB08B1FEF7F3FE7020CDE9000472
:1014F0000220CDE9020404940594002269461348B1
:101500000694FFF7C9FC08B1FEF7E2FE0422694623
:101510000E48FFF7C1FC08B1FEF7DAFE0794089405
:1015200009944FF400500A94CDE90B4007A90748ED
:101530000E94FFF75DFB08B1FEF7CAFE0348FFF704
:101540006BFC16B010BD0000000001402801002017
:1015500010B58EB000240794089409940A940B9453
:101560001C2168460C94FEF763FE23484FF080412F
:10157000016040F2CF21C0E9011440F2CF71C0E90F
:10158000031480218161FFF7A5FB08B1FEF7A0FEDF
:101590004FF48050079007A91748FFF7D1FB08B117
:1015A000FEF796FE1448FFF7DFFC08B1FEF790FE49
:1015B0000B940BA910480C94FFF744FB08B1FEF7FD
:1015C00087FE6020CDE900040294002269460A48A3
:1015D0000494FFF761FC08B1FEF77AFE0422694625
:1015E0000548FFF759FC08B1FEF772FE0248FFF705
:1015F00013FC0EB010BD0000680100200C4810B5AF
:101600000A4901604FF416514160002181600C22AB
:10161000C160C0E904128161C161FFF773FD002858
:1016200003D0BDE81040FEF753BE10BD00100140CE
:10163000A8010020FEE7FEE770477047FEF792BF63
:1016400030B593B030216846FEF7F2FD14210CA8A6
:10165000FEF7EEFD1D480025016841F08051016054
:10166000006800F0805011901948016841F48041F1
:1016700001600068022400F4804011900120009075
:10168000000401908001CDE9064008AA0420A821A9
:1016900082E813000B906846FFF7E8F808B172B6CD
:1016A000FEE70CA90F2081E831004FF4A0500F9005
:1016B0004FF48050109005210CA8FEF7EDFF002894
:1016C00001D072B6FEE713B030BD000040380240D2
:1016D000007000400548016841F470010160034951
:1016E0004FF00060803908607047000088ED00E02E
:1016F000F0B50268254C264D264E274F274B4FF05C
:10170000804CA04209D0604507D0A84205D0B04225
:1017100003D0B84201D0984204D122F0700E4A683A
:1017200042EA0E02A0421BD0604519D0A84217D051
:10173000B04215D0B84213D0984211D0184DA842EB
:101740000ED0184DA8420BD0174DA84208D0174D07
:10175000A84205D0164DA84202D0164DA84203D18A
:1017600022F44075CA682A434D6922F080022A4358
:1017700002608A68C2620A688262A04201D098420E
:1017800001D10969016301214161F0BD00000140FF
:101790000004004000080040000C0040000401402C
:1017A0000040014000440140004801400018004052
:1017B000001C00400020004010B501F01F03012173
:1017C000046A99408C430462016A9A4011430162A1
:1017D00010BD10B5846842EA032224F47F440A4312
:1017E0002243826010BD826822F070020A4342F0F8
:1017F0000701816070470000F0B5026A22F0010223
:101800000262036A42688469124E24F073050C6810
:101810002C4323F002058B682B430D4DA84201D0C9
:10182000B04205D123F00807CB683B4323F0040303
:10183000A84201D0B04205D14D6922F4407215434F
:101840008A692A4342608461496841630362F0BD4A
:101850000000014000040140F0B5026A22F01002CD
:101860000262026A436884690D6824F4E64444EA2B
:1018700005248D6822F0200242EA05120F4D104E19
:10188000A84201D0B04206D1CF6822F0800242EADD
:10189000071222F04002A84201D0B04207D14D69A0
:1018A00023F4406343EA85038D6943EA850343607B
:1018B0008461496881630262F0BD0000000001405C
:1018C00000040140F0B5026A22F480720262026AEA
:1018D0004368C46922F4007224F073050C68124E48
:1018E0002C438D6842EA05220E4DA84201D0B04239
:1018F00006D1CF6822F4006242EA072222F4806215
:10190000A84201D0B04207D14D6923F4405343EAC5
:1019100005138D6943EA05134360C4614968C163D7
:101920000262F0BD000001400004014030B5026ACF
:1019300022F480520262046A4268C3690D6823F48B
:10194000E64343EA05238D6824F4005444EA053451
:10195000084DA84202D0084DA84204D14D6922F496
:10196000804242EA85124260C361496801640462B0
:1019700030BD0000000001400004014010B5036AC2
:10198000046A24F001040462846924F0F00444EA47
:10199000021423F00A020A438461026210BD10B5EA
:1019A000036A23F0100303628369046A23F470431B
:1019B00043EA023224F0A00343EA0111826101628A
:1019C00010BD4FF08040416B0A394163416B816328
:1019D00070474FF08040416B0A314163416B816336
:1019E00070474FF08040816B0A39416370474FF078
:1019F0008040416B0A398163704710B5806B0021CC
:101A0000C185C184FFF7EEFA10BD0168CA6822F4EF
:101A10009072CA6001684A6922F001024A6120217D
:101A200080F83A10704710B590F83A10222901D08A
:101A3000022010BD8168B1F5805F11D001690029D5
:101A400001681FD0496801F07F03816A4A1C8262E5
:101A50000B70C18D491E0904090CC18518D02BE0FB
:101A60000269816A002A0268526805D0D2B20A80EF
:101A7000816A491C8162ECE7C2F308020A80816A2C
:101A8000891CF7E74A68816A4B1C83620A70E0E7A9
:101A90000168CA6822F02002CA600168CA6822F49C
:101AA0008072CA6001684A6922F001024A612021FD
:101AB00080F83A10FFF7C0FB002010BD2DE9F0417F
:101AC000044600680169E26821F440511143016154
:101AD0002169A068E26908436169114308432168EC
:101AE000CA6849F20C639A430243CA60206841699C
:101AF000A26921F4407111434161E069192764250D
:101B00003226B0F5004F354A354920684FF00008BD
:101B100006D0884201D0904236D1FEF767FE35E00C
:101B2000884201D0904202D1FEF760FE01E0FEF74C
:101B30004DFE61684A18A0FB070148EB0803FEF759
:101B40003FFB0146B0FBF5F00201B1FBF5F06FF091
:101B50001803584301EB800006EBC000B0FBF5F022
:101B600000F0F80002EB4002B1FBF5F0584301EB46
:101B7000800006EBC000B0FBF5F000F00700216824
:101B800010448860BDE8F081FEF720FE61688B0F8D
:101B90008A00A0FB0701FEF713FB0146B0FBF5F03E
:101BA0006FF01802504301EB800006EB0010B0FB11
:101BB000F5F000F0F002B1FBF5F002EB0012B1FB22
:101BC000F5F06FF01803584301EB800006EB0010AE
:101BD000B0FBF5F000F00F00D1E700000014014069
:101BE0000010014090F83910212901D002207047DF
:101BF0008168B1F5805F016A0BD04A1C02620268FD
:101C000009785160C18C491E0904090CC1840ED0A9
:101C100017E009880268C1F30801516001690029D1
:101C2000016A02D0491C0162ECE7891CFBE70168EC
:101C3000CA6822F08002CA600068C16841F04001B1
:101C4000C160002070472DE9F041984617460E46C6
:101C50000446069D1DE0681C1BD02DB1FEF77CFCE0
:101C6000A0EB0800A84214D92068C16821F4D07103
:101C7000C1602068416921F001014161202084F8A0
:101C8000390084F83A00002084F838000320BDE8C9
:101C9000F0812068006836EA000004D00020B842D5
:101CA000D9D00020F3E70120F9E700000148FFF751
:101CB0009FB90000A8010020FEE7000004494FF48E
:101CC0007A604863012209150248FEF73FBC000014
:101CD000000001400010024004494FF47A6048635C
:101CE000002209150248FEF731BC00000000014047
:101CF000001002400907090E002804DB00F1E02073
:101D000080F80014704700F00F0000F1E02080F828
:101D1000141D704702E008C8121F08C1002AFAD13A
:101D200070477047002001E001C1121F002AFBD15B
:101D300070470000FEF71EFCFFF782FCFFF74EFB2A
:101D4000FFF798FBFFF75AFCFFF702FC00210C4855
:101D5000FFF726F904210A48FFF722F90021094874
:101D6000FFF71EF904210748FFF71AF90122064977
:101D70000648FFF737FAFEF799FAFEF79EFAFEE7F4
:101D8000280100206801002001000020A801002097
:101D9000000000000000000001020304060708091B
:101DA0000000000001020304C81D0008000000201C
:101DB00014000000141D0008DC1D000814000020A1
:101DC000D4050000241D00080000000001000000F0
:0C1DD00010000000000000000024F400DF
:040000050800018965
:00000001FF
